{
  "_format": "hh-sol-artifact-1",
  "contractName": "StreamStaker",
  "sourceName": "contracts/StreamStaker.sol",
  "abi": [
    {
      "anonymous": false,
      "inputs": [
        {
          "indexed": false,
          "internalType": "uint256",
          "name": "amountIn",
          "type": "uint256"
        },
        {
          "indexed": false,
          "internalType": "uint256",
          "name": "amountOut",
          "type": "uint256"
        }
      ],
      "name": "Staked",
      "type": "event"
    },
    {
      "inputs": [
        {
          "internalType": "address",
          "name": "_owner",
          "type": "address"
        }
      ],
      "name": "initialize",
      "outputs": [],
      "stateMutability": "nonpayable",
      "type": "function"
    },
    {
      "inputs": [],
      "name": "owner",
      "outputs": [
        {
          "internalType": "address",
          "name": "",
          "type": "address"
        }
      ],
      "stateMutability": "view",
      "type": "function"
    },
    {
      "inputs": [],
      "name": "stake",
      "outputs": [],
      "stateMutability": "nonpayable",
      "type": "function"
    },
    {
      "inputs": [
        {
          "internalType": "address",
          "name": "operator",
          "type": "address"
        },
        {
          "internalType": "address",
          "name": "from",
          "type": "address"
        },
        {
          "internalType": "address",
          "name": "to",
          "type": "address"
        },
        {
          "internalType": "uint256",
          "name": "amount",
          "type": "uint256"
        },
        {
          "internalType": "bytes",
          "name": "userData",
          "type": "bytes"
        },
        {
          "internalType": "bytes",
          "name": "operatorData",
          "type": "bytes"
        }
      ],
      "name": "tokensReceived",
      "outputs": [],
      "stateMutability": "nonpayable",
      "type": "function"
    },
    {
      "inputs": [
        {
          "internalType": "int256",
          "name": "amount0Delta",
          "type": "int256"
        },
        {
          "internalType": "int256",
          "name": "amount1Delta",
          "type": "int256"
        },
        {
          "internalType": "bytes",
          "name": "_data",
          "type": "bytes"
        }
      ],
      "name": "uniswapV3SwapCallback",
      "outputs": [],
      "stateMutability": "nonpayable",
      "type": "function"
    }
  ],
  "bytecode": "0x608060405234801561001057600080fd5b50611607806100206000396000f3fe608060405234801561001057600080fd5b50600436106100565760003560e01c806223de291461005b5780633a4b66f1146100775780638da5cb5b14610081578063c4d66de81461009f578063fa461e33146100bb575b600080fd5b61007560048036038101906100709190610fb3565b6100d7565b005b61007f6100e1565b005b610089610991565b6040516100969190611278565b60405180910390f35b6100b960048036038101906100b49190610f3b565b6109b7565b005b6100d560048036038101906100d091906110db565b610b9a565b005b5050505050505050565b73d04383398dd2426297da660f9cca3d439af9ce1b73ffffffffffffffffffffffffffffffffffffffff166311bcc81e73d04383398dd2426297da660f9cca3d439af9ce1b73ffffffffffffffffffffffffffffffffffffffff166370a08231306040518263ffffffff1660e01b815260040161015e9190611278565b60206040518083038186803b15801561017657600080fd5b505afa15801561018a573d6000803e3d6000fd5b505050506040513d601f19601f820116820180604052508101906101ae9190611147565b6040518263ffffffff1660e01b81526004016101ca91906113a4565b600060405180830381600087803b1580156101e457600080fd5b505af11580156101f8573d6000803e3d6000fd5b50505050600060029054906101000a900473ffffffffffffffffffffffffffffffffffffffff1673ffffffffffffffffffffffffffffffffffffffff163373ffffffffffffffffffffffffffffffffffffffff16146103cb5773833589fcd6edb6e08f4c7c32d4f71b54bda0291373ffffffffffffffffffffffffffffffffffffffff1663a9059cbb73f4448f0ccf51d727fb73493efa7ee298eed2663561035a6103e861034c600573833589fcd6edb6e08f4c7c32d4f71b54bda0291373ffffffffffffffffffffffffffffffffffffffff166370a08231306040518263ffffffff1660e01b81526004016102ee9190611278565b60206040518083038186803b15801561030657600080fd5b505afa15801561031a573d6000803e3d6000fd5b505050506040513d601f19601f8201168201806040525081019061033e9190611147565b610d2b90919063ffffffff16565b610db190919063ffffffff16565b6040518363ffffffff1660e01b8152600401610377929190611293565b602060405180830381600087803b15801561039157600080fd5b505af11580156103a5573d6000803e3d6000fd5b505050506040513d601f19601f820116820180604052508101906103c99190611076565b505b600073833589fcd6edb6e08f4c7c32d4f71b54bda0291373ffffffffffffffffffffffffffffffffffffffff166370a08231306040518263ffffffff1660e01b815260040161041a9190611278565b60206040518083038186803b15801561043257600080fd5b505afa158015610446573d6000803e3d6000fd5b505050506040513d601f19601f8201168201806040525081019061046a9190611147565b90506000732ae3f1ec7f1f5012cfeab0185bfc7aa3cf0dec2273ffffffffffffffffffffffffffffffffffffffff166370a08231600060029054906101000a900473ffffffffffffffffffffffffffffffffffffffff166040518263ffffffff1660e01b81526004016104dd9190611278565b60206040518083038186803b1580156104f557600080fd5b505afa158015610509573d6000803e3d6000fd5b505050506040513d601f19601f8201168201806040525081019061052d9190611147565b9050600073833589fcd6edb6e08f4c7c32d4f71b54bda029138373420000000000000000000000000000000000000660405160200161056e9392919061134d565b604051602081830303815290604052905073d0b53d9277642d899df5c87a3966a349a798f22473ffffffffffffffffffffffffffffffffffffffff1663128acb083060008673fffd8963efd1fc6a506488495d951d5263988d25866040518663ffffffff1660e01b81526004016105e99594939291906112bc565b6040805180830381600087803b15801561060257600080fd5b505af1158015610616573d6000803e3d6000fd5b505050506040513d601f19601f8201168201806040525081019061063a919061109f565b50507342000000000000000000000000000000000000068073ffffffffffffffffffffffffffffffffffffffff166370a08231306040518263ffffffff1660e01b815260040161068a9190611278565b60206040518083038186803b1580156106a257600080fd5b505afa1580156106b6573d6000803e3d6000fd5b505050506040513d601f19601f820116820180604052508101906106da9190611147565b732ae3f1ec7f1f5012cfeab0185bfc7aa3cf0dec226040516020016107019392919061134d565b60405160208183030381529060405290507310648ba41b8565907cfa1496765fa4d95390aa0d73ffffffffffffffffffffffffffffffffffffffff1663128acb08600060029054906101000a900473ffffffffffffffffffffffffffffffffffffffff16600073420000000000000000000000000000000000000673ffffffffffffffffffffffffffffffffffffffff166370a08231306040518263ffffffff1660e01b81526004016107b49190611278565b60206040518083038186803b1580156107cc57600080fd5b505afa1580156107e0573d6000803e3d6000fd5b505050506040513d601f19601f820116820180604052508101906108049190611147565b73fffd8963efd1fc6a506488495d951d5263988d25866040518663ffffffff1660e01b815260040161083a9594939291906112bc565b6040805180830381600087803b15801561085357600080fd5b505af1158015610867573d6000803e3d6000fd5b505050506040513d601f19601f8201168201806040525081019061088b919061109f565b5050600082732ae3f1ec7f1f5012cfeab0185bfc7aa3cf0dec2273ffffffffffffffffffffffffffffffffffffffff166370a08231600060029054906101000a900473ffffffffffffffffffffffffffffffffffffffff166040518263ffffffff1660e01b81526004016108ff9190611278565b60206040518083038186803b15801561091757600080fd5b505afa15801561092b573d6000803e3d6000fd5b505050506040513d601f19601f8201168201806040525081019061094f9190611147565b0390507f925435fa7e37e5d9555bb18ce0d62bb9627d0846942e58e5291e9a2dded462ed84826040516109839291906113bf565b60405180910390a150505050565b600060029054906101000a900473ffffffffffffffffffffffffffffffffffffffff1681565b600060019054906101000a900460ff16806109d657506109d5610e3a565b5b806109ec575060008054906101000a900460ff16155b610a41576040517f08c379a000000000000000000000000000000000000000000000000000000000815260040180806020018281038252602e815260200180611583602e913960400191505060405180910390fd5b60008060019054906101000a900460ff161590508015610a91576001600060016101000a81548160ff02191690831515021790555060016000806101000a81548160ff0219169083151502179055505b81600060026101000a81548173ffffffffffffffffffffffffffffffffffffffff021916908373ffffffffffffffffffffffffffffffffffffffff160217905550731820a4b7618bde71dce8cdc73aab6c95905fad2473ffffffffffffffffffffffffffffffffffffffff166329965a1d307fb281fc8c12954d22544db45de3159a39272895b169a852b314f9cc762e44c53b306040518463ffffffff1660e01b8152600401610b4393929190611316565b600060405180830381600087803b158015610b5d57600080fd5b505af1158015610b71573d6000803e3d6000fd5b505050508015610b965760008060016101000a81548160ff0219169083151502179055505b5050565b73d0b53d9277642d899df5c87a3966a349a798f22473ffffffffffffffffffffffffffffffffffffffff163373ffffffffffffffffffffffffffffffffffffffff161480610c2757507310648ba41b8565907cfa1496765fa4d95390aa0d73ffffffffffffffffffffffffffffffffffffffff163373ffffffffffffffffffffffffffffffffffffffff16145b610c66576040517f08c379a0000000000000000000000000000000000000000000000000000000008152600401610c5d90611384565b60405180910390fd5b60008060008484810190610c7a9190610f64565b9250925092506000808813610c8f5786610c91565b875b90508373ffffffffffffffffffffffffffffffffffffffff1663a9059cbb33836040518363ffffffff1660e01b8152600401610cce929190611293565b602060405180830381600087803b158015610ce857600080fd5b505af1158015610cfc573d6000803e3d6000fd5b505050506040513d601f19601f82011682018060405250810190610d209190611076565b505050505050505050565b600080831415610d3e5760009050610dab565b6000828402905082848281610d4f57fe5b0414610da6576040517f08c379a00000000000000000000000000000000000000000000000000000000081526004018080602001828103825260218152602001806115b16021913960400191505060405180910390fd5b809150505b92915050565b6000808211610e28576040517f08c379a000000000000000000000000000000000000000000000000000000000815260040180806020018281038252601a8152602001807f536166654d6174683a206469766973696f6e206279207a65726f00000000000081525060200191505060405180910390fd5b818381610e3157fe5b04905092915050565b6000610e4530610e4b565b15905090565b600080823b905060008111915050919050565b600081359050610e6d8161150f565b92915050565b600081359050610e8281611526565b92915050565b600081519050610e978161153d565b92915050565b60008083601f840112610eaf57600080fd5b8235905067ffffffffffffffff811115610ec857600080fd5b602083019150836001820283011115610ee057600080fd5b9250929050565b600081359050610ef681611554565b92915050565b600081519050610f0b81611554565b92915050565b600081359050610f208161156b565b92915050565b600081519050610f358161156b565b92915050565b600060208284031215610f4d57600080fd5b6000610f5b84828501610e5e565b91505092915050565b600080600060608486031215610f7957600080fd5b6000610f8786828701610e73565b9350506020610f9886828701610f11565b9250506040610fa986828701610e73565b9150509250925092565b60008060008060008060008060c0898b031215610fcf57600080fd5b6000610fdd8b828c01610e5e565b9850506020610fee8b828c01610e5e565b9750506040610fff8b828c01610e5e565b96505060606110108b828c01610f11565b955050608089013567ffffffffffffffff81111561102d57600080fd5b6110398b828c01610e9d565b945094505060a089013567ffffffffffffffff81111561105857600080fd5b6110648b828c01610e9d565b92509250509295985092959890939650565b60006020828403121561108857600080fd5b600061109684828501610e88565b91505092915050565b600080604083850312156110b257600080fd5b60006110c085828601610efc565b92505060206110d185828601610efc565b9150509250929050565b600080600080606085870312156110f157600080fd5b60006110ff87828801610ee7565b945050602061111087828801610ee7565b935050604085013567ffffffffffffffff81111561112d57600080fd5b61113987828801610e9d565b925092505092959194509250565b60006020828403121561115957600080fd5b600061116784828501610f26565b91505092915050565b61117981611483565b82525050565b61118881611415565b82525050565b61119781611439565b82525050565b6111a681611445565b82525050565b60006111b7826113e8565b6111c181856113f3565b93506111d18185602086016114cb565b6111da816114fe565b840191505092915050565b6111ee8161144f565b82525050565b6111fd81611495565b82525050565b6000611210602b83611404565b91507f6f6e6c7920756e697377617020763320706169722063616e2063616c6c20746860008301527f69732066756e6374696f6e0000000000000000000000000000000000000000006020830152604082019050919050565b61127281611479565b82525050565b600060208201905061128d600083018461117f565b92915050565b60006040820190506112a86000830185611170565b6112b56020830184611269565b9392505050565b600060a0820190506112d1600083018861117f565b6112de602083018761118e565b6112eb60408301866111e5565b6112f860608301856111f4565b818103608083015261130a81846111ac565b90509695505050505050565b600060608201905061132b600083018661117f565b611338602083018561119d565b611345604083018461117f565b949350505050565b6000606082019050611362600083018661117f565b61136f6020830185611269565b61137c604083018461117f565b949350505050565b6000602082019050818103600083015261139d81611203565b9050919050565b60006020820190506113b96000830184611269565b92915050565b60006040820190506113d46000830185611269565b6113e16020830184611269565b9392505050565b600081519050919050565b600082825260208201905092915050565b600082825260208201905092915050565b600061142082611459565b9050919050565b600061143282611459565b9050919050565b60008115159050919050565b6000819050919050565b6000819050919050565b600073ffffffffffffffffffffffffffffffffffffffff82169050919050565b6000819050919050565b600061148e826114a7565b9050919050565b60006114a082611459565b9050919050565b60006114b2826114b9565b9050919050565b60006114c482611459565b9050919050565b60005b838110156114e95780820151818401526020810190506114ce565b838111156114f8576000848401525b50505050565b6000601f19601f8301169050919050565b61151881611415565b811461152357600080fd5b50565b61152f81611427565b811461153a57600080fd5b50565b61154681611439565b811461155157600080fd5b50565b61155d8161144f565b811461156857600080fd5b50565b61157481611479565b811461157f57600080fd5b5056fe496e697469616c697a61626c653a20636f6e747261637420697320616c726561647920696e697469616c697a6564536166654d6174683a206d756c7469706c69636174696f6e206f766572666c6f77a2646970667358221220d70a11d902a4f105a219272e7b5efe8c08bc88aa34f3ababbc656831b5e7bfd164736f6c63430007060033",
  "linkReferences": {},
  "deployedLinkReferences": {}
}